:03000000020006F5
:10005F00D20478737600787476007875E4F608F633
:0C006F0008F608F67881F608F602000397
:0300030002175E83
:10007B00AE82AF838E048F051EBEFF011FEC4D6059
:10008B000A7DCC7C1DDDFEDCFC80E922858299108B
:10009B00990280FB22E582FFC4540F90236993F5EC
:1000AB0082C007120097D00753070F7E00EF246919
:1000BB00F582EE3423F583E493F582020097858273
:1000CB00218583228522821200A08521820200A035
:1000DB0085822385832485F025F5268526821200CB
:1000EB00A08525821200A08524821200A085238280
:1000FB000200A0AF82740F5F44C0F5BC0000E5BCEA
:10010B0030E5FB75BC8FAFBD7E00ACBE7D00EC4E09
:10011B00F582ED4FF5832220B30122758203120085
:10012B00FEAE82AF8320B3012275820FC007C006DB
:10013B001200FEAC82AD83D006D007C3EC9420ED49
:10014B0094005001228E088F09750A00750B0090E0
:10015B0040BE75F001E4C005C004121A1FAA82ABA1
:10016B0083AEF0FFD004D0058C088D09750A00759D
:10017B000B008A828B838EF0EF121982AC82AD83D7
:10018B00AEF0FF75082FE4F509F50AF50B8C828D9F
:10019B00838EF0EF121982AC82AD837881C374D059
:1001AB009674870886F063F08095F050298C068D45
:1001BB00077881EEC396FEEF0896C4CEC4540F6E3B
:1001CB00CE540FCE6ECE30E30244F0FF7881EE2694
:1001DB00F6EF0836F6227881A60408A6052290FED3
:1001EB0082E030E6F990FE82E054BFF02290FE816F
:1001FB007406F00201E9AF8290FE86EFF090FE816B
:10020B007409F00201E9AF8290FE86EFF090FE8157
:10021B00740AF00201E990FE81740BF01201E9906F
:10022B00FE87E0F5822290FE81740CF01201E990BA
:10023B00FE87E0F58222AF827582AEC00712020103
:10024B00D0078F821202117582AF12020112023196
:10025B00AF82C0071201F8D0078F8222AF8275825E
:10026B00AEC007120201D0078F82120211852782BE
:10027B001202110201F8AF82E52B7001227582AEDA
:10028B00C007120201D0078F821202117582AF12C2
:10029B000201AD28AE29AF2AAC2B1CEC6026C0079F
:1002AB00C006C005C004120221AB82D004D005D019
:1002BB0006D0078D828E838FF0EB1219E7A3AD82E8
:1002CB00AE8380D6C007C006C005120231AC82D007
:1002DB0005D006D0078D828E838FF0EC1219E702C2
:1002EB0001F87887862775820D1202677888862732
:1002FB0075820C020267AF82C0A8C2AF0000758284
:10030B0078C007120201758200120211D0078F828A
:10031B00120211852C821202111201F800D0A800D2
:10032B000022AF82758278C007120201758200121B
:10033B000211D007740F5FF582C007120211D007AC
:10034B00EFC4540FFF74104FF582120211E52D54B8
:10035B000744B0F5821202110201F8AD82AE83AFF1
:10036B00F0E52E700122758278C007C006C0051219
:10037B000201758240120211D005D006D007AC2EB7
:10038B008D828E838FF0121B08FBA3AD82AE838B05
:10039B0082C007C006C005C004120211D004D005EC
:1003AB00D006D007DCDA0201F8AF82E52F7001220C
:1003BB00758278C007120201758240120211D007B4
:1003CB00AE2F8F82C007C006120211D006D007DEF7
:1003DB00F10201F8AF82AE30AD328E2D8F82C007A5
:1003EB00C006C00512032D85312E853382853483DB
:1003FB008535F0120366D005D006D0070EE5312502
:10040B0033F533E43534F534DDD022AF82AE36AD7F
:10041B00388E2D8F82C007C006C00512032D85377D
:10042B002F8539821203B4D005D006D0070EDDE13B
:10043B00227883742026FEE40836A2E7CE33CE332F
:10044B00A2E7CE33CE33CE540330E10244FCFF7827
:10045B0073B6500280487533C0753422753580757C
:10046B0030007531207532027582001203DF75334F
:10047B00C0753422753580753002753120753202A6
:10048B007582001203DF7533C075342275358075A4
:10049B0030047531207532027582000203DFBE1EF7
:1004AB00004005EE243750487533C075342275353E
:1004BB00807530007531207532027582001203DFB2
:1004CB007533C075342275358075300275312075E2
:1004DB0032027582001203DF753380753422753555
:1004EB00807530047531207532027582000203DF8E
:1004FB008E057F0075080A8F098D828F83C00612C7
:10050B001B24AD82D0068D07EF75F00AA4FFEEC356
:10051B009F75F040A42400FE742035F0FF8E338FBE
:10052B003475358075300475312075320275820053
:10053B00C0051203DFD005ED60738D067F007508D3
:10054B000A8F098E828F83C005121B24AE82D005C1
:10055B008E07EF75F00AA4FFEDC39F75F040A4243E
:10056B0000FD742035F0FF8D338F34753580753079
:10057B0002753120753202758200C0061203DFD07E
:10058B0006EE600FEE75F040A42400FE742035F0EB
:10059B00FF80047EC07F228E338F3475358075309B
:1005AB00007531207532027582000203DF7533C08E
:1005BB0075342275358075300275312075320275B0
:1005CB0082001203DF7533C07534227535807530A8
:1005DB00007531207532027582000203DF78857455
:1005EB002026FEE40836A2E7CE33CE33A2E7CE3385
:1005FB00CE33CE540330E10244FCFF7873B6500285
:10060B0080307533C0753422753580753002753185
:10061B00207532027582201203DF7533C0753422C8
:10062B007535807530047531207532027582200264
:10063B0003DFBE0A004005EE249C50307533C075B5
:10064B003422753580753002753120753202758212
:10065B00201203DF753380753422753580753004B5
:10066B007531207532027582200203DF8E057F0003
:10067B0075080A8F098D828F83C006121B24AD82E9
:10068B00D0068D07EF75F00AA4FFEEC39F75F040FF
:10069B00A42400FE742035F0FF8E338F3475358023
:1006AB00753004753120753202758220C005120336
:1006BB00DFD005ED600FED75F040A42400FE742033
:1006CB0035F0FF80047EC07F228E338F34753580EA
:1006DB007530027531207532027582200203DF7886
:1006EB0081C374E496748C0886F063F08095F050A7
:1006FB001C7881E6241CF58208E634F3F583750833
:10070B001C750900121B24AE82AF8380027E007F12
:10071B00028F2D75824EC007C00612032DD006D056
:10072B0007EE24F8501E902368E493FD752F088D77
:10073B0082C007C0061203B4D006D0078E05ED2485
:10074B00F8FE8014EE90236093FD752F088D82C008
:10075B00071203B4D0077E000FBF060040B32285FB
:10076B00824F85835085F051F5527873E670177878
:10077B0079E4F608F608F608F6787DF608F608F63A
:10078B0008F67873760A7873B60A1D788776007840
:10079B008876101202ED7895E4F608F608F608F65E
:1007AB007873760B758201227873B60B0280030285
:1007BB00084A7895E53EC396FAE53F0896FBE54077
:1007CB000896FEE5410896FFEBC4CAC4540F6ACAEB
:1007DB00540FCA6ACAFBEEC454F04BFBEFC4CEC431
:1007EB00540F6ECE540FCE6ECE30E30244F0FF7832
:1007FB0095EA26F6EB0836F6EE0836F6EF0836F6EF
:10080B007896860408E6C313CC13CCC313CC13CC55
:10081B00FD08E6030354C04DFDE6A2E713A2E71360
:10082B00FE3395E0FFBC0A005004758200227889E4
:10083B0076A00876860876010876007873761478A9
:10084B0073B6141378877610788876101202ED78C9
:10085B00737615758201227873B61526788DA64F9F
:10086B0008A65008A65108A6527895A63E08A63FA2
:10087B0008A64008A641787476327873761675828E
:10088B0000227873B616028003020A68788DE54F52
:10089B00C396FAE5500896FBE5510896FEE552081B
:1008AB0096FFEBC4CAC4540F6ACA540FCA6ACAFB78
:1008BB00EEC454F04BFBEFC4CEC4540F6ECE540FAA
:1008CB00CE6ECE30E30244F0FF788DEA26F6EB08CD
:1008DB0036F6EE0836F6EF0836F67895E53EC39613
:1008EB00FCE53F0896FDE5400896FEE5410896FFBE
:1008FB00EDC4CCC4540F6CCC540FCC6CCCFDEEC4FB
:10090B0054F04DFDEFC4CEC4540F6ECE540FCE6ECB
:10091B00CE30E30244F0FF7895EC26F6ED0836F680
:10092B00EE0836F6EF0836F67874167874E660043F
:10093B007582002278878608750900750A00750B89
:10094B0000788986820886830886F008E6121A1FCB
:10095B0085825385835485F055F556788D74E8263A
:10096B00FA74030836FBE40836FEE40836FF8A08FF
:10097B008B098E0A8F0B8553828554838555F0E541
:10098B0056121982AC82AD83AEF0FFC3EC9404ED2A
:10099B009400EE9400EF6480948050087C047D00FA
:1009AB007E007F00C3747F9CE49DE49E74808FF077
:1009BB0063F08095F050087C7F7D007E007F00788F
:1009CB0087A60478888608750900750A00750B00E0
:1009DB00788986820886830886F008E6121A1F85B6
:1009EB00825385835485F055F556789574E826FA2D
:1009FB0074030836FBE40836FEE40836FF8A088BDE
:100A0B00098E0A8F0B8553828554838555F0E556E5
:100A1B00121982AC82AD83AEF0FFC3EC9404ED945B
:100A2B0000EE9400EF6480948050087C047D007E7F
:100A3B00007F00C3747F9CE49DE49E74808FF06301
:100A4B00F08095F050087C7F7D007E007F007888D9
:100A5B00A6041202ED7873761E75820122788CE65D
:100A6B00C313F55618E613F55518E613F55418E6A7
:100A7B0013F553E556C313F556E55513F555E554E4
:100A8B0013F554E55313F553AA4FAB50AE51AF5278
:100A9B00C3EA9553EB9554EE9555EF95564017AC2D
:100AAB003EAD3FAE40AF41C3EC9553ED9554EE9543
:100ABB0055EF955650087873760A75820122C374E8
:100ACB0070954F74FF95507403955174808552F057
:100ADB0063F08095F040187470953E74FF953F74E9
:100AEB0003954074808541F063F08095F0501A783F
:100AFB008CE6C313F618E613F618E613F618E6138E
:100B0B00F678737614758201227873B61E39788D58
:100B1B00A64F08A65008A65108A652AC3EAD3FAE54
:100B2B0040AF417895A60408A60508A60608A607B7
:100B3B00789DE4F608F6789FF608F67874763278A6
:100B4B0073761F75820022788DE54FC396F542E5CB
:100B5B00500896F543E5510896F544E5520896F58D
:100B6B0045AA42E543A2E7CA33CA33A2E7CA33CA4E
:100B7B0033CA5403FBE544254425E04BFBAE44E567
:100B8B0045A2E7CE33CE33A2E7CE33CE33CE5403DA
:100B9B0030E10244FCFF788DEA26F6EB0836F6EEE0
:100BAB000836F6EF0836F6C374FF9542747F95430B
:100BBB00E4954474808545F063F08095F0500D7595
:100BCB0042FF75437FE4F544F5458021C3E542942C
:100BDB0001E5439480E54494FFE5456480947F50A0
:100BEB000C7542017543807544FF7545FFAC42ADF2
:100BFB0043789DE62CFC08E63DFD789DA604EDA20E
:100C0B00E713C613C608F67895E53EC396F53EE5A1
:100C1B003F0896F53FE5400896F540E5410896F507
:100C2B0041AC3EE53FA2E7CC33CC33A2E7CC33CC8F
:100C3B0033CC5403FDE540254025E04DFDAE40E5AA
:100C4B0041A2E7CE33CE33A2E7CE33CE33CE54031D
:100C5B0030E10244FCFF7895EC26F6ED0836F6EE13
:100C6B000836F6EF0836F6C374FF953E747F953F52
:100C7B00E4954074808541F063F08095F0500D75DC
:100C8B003EFF753F7FE4F540F5418021C3E53E947F
:100C9B0001E53F9480E54094FFE5416480947F50EB
:100CAB000C753E01753F807540FF7541FFAE3EAF41
:100CBB003F789FE62EFE08E63FFF789FA606EFA241
:100CCB00E713C613C608F67873B61F5E78741678EA
:100CDB0074E66004758200227891E4F608F6789346
:100CEB00F608F678A1F608F678A5F608F67899F6E0
:100CFB0008F6789BF608F678A3F608F678A7F608B8
:100D0B00F6C200C202C201C20378A9E4F608F67863
:100D1B00ADF608F678ABF608F678AFF608F6787409
:100D2B0076327873762075820022789D79A1C3E79D
:100D3B009609E764800886F063F08095F05012788E
:100D4B009D860608860778A1A60608A607D200800E
:100D5B002E100002801078A1860608860778A9A6B7
:100D6B000608A607801978AD79A1E6C39708E609AE
:100D7B0097FE3395E0FF78A1EE26F6EF0836F6786E
:100D8B00A97991E6C397FE08E60997C403CEC4037D
:100D9B0054076ECE5407CE6ECE30E20244F8FF7885
:100DAB0091EE26F6EF0836F6789D79A5C3E69708FF
:100DBB00E664800987F063F08095F05012789D8689
:100DCB000608860778A5A60608A607D202802E106D
:100DDB000202801078A5860608860778ADA606085D
:100DEB00A607801978A979A5E6C39708E60997FEA7
:100DFB003395E0FF78A5EE26F6EF0836F678AD7959
:100E0B0093E6C397FE08E60997C403CEC4035407C1
:100E1B006ECE5407CE6ECE30E20244F8FF7893EEDE
:100E2B0026F6EF0836F6789F79A3C3E79609E764B1
:100E3B00800886F063F08095F05012789F86060844
:100E4B00860778A3A60608A607D201802E100102FA
:100E5B00801078A3860608860778ABA60608A60737
:100E6B00801978AF79A3E6C39708E60997FE339507
:100E7B00E0FF78A3EE26F6EF0836F678AB7999E625
:100E8B00C397FE08E60997C403CEC40354076ECE7E
:100E9B005407CE6ECE30E20244F8FF7899EE26F678
:100EAB00EF0836F6789F79A7C3E69708E6648009C2
:100EBB0087F063F08095F05012789F8606088607BE
:100ECB0078A7A60608A607D203802E10030280106F
:100EDB0078A7860608860778AFA60608A6078019A6
:100EEB0078AB79A7E6C39708E60997FE3395E0FF41
:100EFB0078A7EE26F6EF0836F678AF799BE6C39720
:100F0B00FE08E60997C403CEC40354076ECE5407FC
:100F1B00CE6ECE30E20244F8FF789BEE26F6EF0859
:100F2B0036F67873B620107874167874E66004750C
:100F3B00820022787376327873B6323C7F00EF757D
:100F4B00F002A4FDAEF024C1F582EE3400F583E48B
:100F5B00F0A3F0ED2417F582EE3402F583E4F0A351
:100F6B00F00FBFAB0040D7E4F53AF53BF53CF53D50
:100F7B007874769678737633789D8653088654E624
:100F8B003395E0F555F556789F8602088603E633D0
:100F9B0095E0FEFFEA2553F508EB3554F509EE35E0
:100FAB0055F50AEF3556F50B9000DCE4F5F0121A07
:100FBB001F85825385835485F055F5567891864F5E
:100FCB00088650E63395E0F551F55278998604087A
:100FDB008605E63395E0FEFFEC254FF54FED3550DA
:100FEB00F550EE3551F551EF3552F55278938602A7
:100FFB00088603E63395E0FEFFE54FC39AF54FE510
:10100B00509BF550E5519EF551E5529FF552789B5B
:10101B008604088605E63395E0FEFFE54FC39CF595
:10102B0008E5509DF509E5519EF50AE5529FF50B34
:10103B008553828554838555F0E556121AB6AC82DA
:10104B00AD838C468D47C3747F9C74808DF063F0A9
:10105B008095F0500875467F7547008011C3EC945E
:10106B0081ED6480947F50067546817547FF853A04
:10107B004B853B4C853A4D7440253BF54E7EC17FED
:10108B00007C177D02AB4790FCF4EBF0AB4690FC79
:10109B00F5EBF0754A00E54C75F002A42465F5827A
:1010AB00742435F0F583E493F548A3E493F549AA4A
:1010BB004990FCF2EAF0AA4890FCF3EAF090FCF6B7
:1010CB007480F090FCF723F08E828F83E0A3E0F521
:1010DB00483395E0F54990FCF7E020E0F98E828FDC
:1010EB0083E0F553A3E0F55490FCF2E0FB3395E07D
:1010FB00FAEBC39548FBEA9549FAEB2553FBEA3526
:10110B0054FA8E828F83EBF0EAA3F0A3AE82AF8307
:10111B00E54E75F002A42465F582742435F0F58351
:10112B00E493F548A3E493F549AB4990FCF2EBF05B
:10113B00AB4890FCF3EBF090FCF67480F090FCF76E
:10114B0023F08C828D83E0A3E0F5483395E0F549DD
:10115B0090FCF7E020E0F9C006C0078C828D83E09D
:10116B00FAA3E0FB90FCF2E0FF3395E0FEEFC395B2
:10117B0048FFEE9549FEEF2AFAEE3BFB8C828D83FE
:10118B00EAF0EBA3F0A3AC82AD83E53C254BF54B2A
:10119B00E53D354CF54CE53C254DF54DE53D354EE6
:1011AB00F54E054AC3E54A94ABD007D0065003026F
:1011BB0010A17442253AF53A7401353BF53B740B9B
:1011CB00253CF53CE4353DF53D7873B6331B78741F
:1011DB00167874E66004758200227883E4F608F6CC
:1011EB007885F608F6787376507582002275820042
:1011FB00120241752801752900752A00752B03759C
:10120B008204120281900001E0FF900003E0FEEFE8
:10121B00C39E541FF557900002E0FE53061F8E022B
:10122B007B007C007D00787DEA26F6EB0836F6EC39
:10123B000836F6ED0836F6E5577006EE600375577F
:10124B0020E557700122E557FE24DF50027E20E592
:10125B0057C39EF557752801752900752A00EE7541
:10126B00F006A4F52B758207C006120281D0067C0E
:10127B00017D001004CB755F008C828D83E0FB74C5
:10128B00012CFAE43DFF74035BF55E8A828F83E0E9
:10129B00FB0ABA00010F8B5D8A828F83E0FB0ABACF
:1012AB0000010F8B5C755B008A828F83E0FB0ABAAF
:1012BB0000010F74035BF55A8A828F83E0FB0ABA35
:1012CB0000010F8B598A828F83E0FB74012AFCE4A7
:1012DB003FFD8B58787906B6000C0806B600070858
:1012EB0006B600020806855C3E855D3F855E40853F
:1012FB005F41855882855983855AF0E55BC006C0EE
:10130B0005C00412076AE582D004D005D00660241C
:10131B007527007582061202677527007582051204
:10132B00026775270075820412026775820012022C
:10133B0041D204221EEE600302128102124C78731A
:10134B00B650028001227899866408E6F5653395DC
:10135B00E0F566F567789B860208E6FB3395E0FEC1
:10136B00FFE564C39AFAE5659BFBE5669EFEE567C0
:10137B009FFF788D860808E6A2E7C50833C50833BA
:10138B00A2E7C50833C50833C5085403F50908E6B9
:10139B002625E04509F509860A08E6A2E7C50A33C2
:1013AB00C50A33A2E7C50A33C50A33C50A5403304D
:1013BB00E10244FCF50B8A828B838EF0EF121A1F2D
:1013CB0085826485836585F066F567C3E5649464FF
:1013DB00E5659400E5669400E567648094805001B0
:1013EB00227891866808E6F5693395E0F56AF56B26
:1013FB007893860408E6FD3395E0FEFFE568C39C11
:10140B00FCE5699DFDE56A9EFEE56B9FFF78958681
:10141B000808E6A2E7C50833C50833A2E7C50833B9
:10142B00C50833C5085403F50908E62625E0450928
:10143B00F509860A08E6A2E7C50A33C50A33A2E70F
:10144B00C50A33C50A33C50A540330E10244FCF51F
:10145B000B8C828D838EF0EF121A1FAC82AD83AE94
:10146B00F0FF856408E565A2E7C50833C50833A21C
:10147B00E7C50833C50833C5085403F509E56625E8
:10148B006625E04509F50985660AE567A2E7C50A01
:10149B0033C50A33A2E7C50A33C50A33C50A540359
:1014AB0030E10244FCF50B8C828D838EF0EF121A27
:1014BB00B685826085836185F062F56320E715C38D
:1014CB00E56094ECE5619400E5629400E56364806B
:1014DB0094804001227885E608466041E5602560EE
:1014EB00FAE56133FBE56233E56333EA2479F58290
:1014FB00EB3423F583E493FEA3E493FF7885EEC3EB
:10150B0096FEEF0896A2E713CE13CEA2E713CE13E7
:10151B00CEFF7885EE26F6EF0836F68025E56025BA
:10152B0060FCE56133FDE56233FEE56333FFEC24DC
:10153B0079F582ED3423F5837885E493F6A3E49370
:10154B0008F67885C374C09674980886F063F080AB
:10155B0095F05007788576C0087618227873B650C8
:10156B0002800122E4FFF56DF56E7BC17C00757185
:10157B0017757202F56CC0078B828C83E0A3E0FEBB
:10158B00A3AB82AC83EEFD3395E0FE8D088E098D07
:10159B00828E83C007C004C003121A02AD82AE83D1
:1015AB00D003D004D007857182857283E0A3E0FF5E
:1015BB00A3858271858372EFFA3395E0FF8A088FDA
:1015CB00098A828F83C006C005C004C003121A02A9
:1015DB00AA82AF83D003D004D005D006EA2DF56FD5
:1015EB00EF3EF570C3E56D956FE56E9570D00750C6
:1015FB0008856F6D85706EAF6C056C7455256C40EE
:10160B0003021581C3E56D9464E56E9400500122CD
:10161B00741E2FFF7883E6084660427883860508A0
:10162B00E6A2E713CD13CDA2E713CD13CDFE78833E
:10163B00E6C39DF608E69EF68F05E4C454F0CDC4D0
:10164B00CD6DCD54F0CD6DFE78838603088604ED09
:10165B002BFDEE3CFE7883A60508A606227E0078BD
:10166B0083A607EE5403A2E0C613C613A2E0C6136B
:10167B00C613C608F6227875860753071FEF700648
:10168B001201220206EABF060612156702043CBFCE
:10169B000B061213490205E8BF12030211F8BF181B
:1016AB000830B2012275C76022BF1C02800122786C
:1016BB0073B6500280012275824F12009775823AE1
:1016CB00120097787986820886830886F008E612DE
:1016DB0000DB75822C120097787D86820886830842
:1016EB0086F008E61200DB75822C12009778818653
:1016FB00820886831200C975822C12009778837436
:10170B002026FEE40836A2E7CE33CE33A2E7CE3353
:10171B00CE33CE540330E10244FC8E821200A0750E
:10172B00822C1200977885742026FEE40836A2E7F7
:10173B00CE33CE33A2E7CE33CE33CE540330E102D9
:10174B0044FC8E821200A075820D12009775820ADE
:10175B00020097C2AF75B20075B10875CA0075C9A2
:10176B000090003212007B20B20375C76075BA90EF
:10177B0090FE157430F090FE81E4F090FE88F090AE
:10178B00FE8074D9F090FE82E4F075DE2090FEA806
:10179B00743FF075BC8FC2B290000112007BD2B2C5
:1017AB0090000112007B752CE37582AE120301755C
:1017BB002C387582D3120301752CE375824012030A
:1017CB0001752C3F7582A8120301752CE37582A05D
:1017DB00120301752CE37582C8120301752C027577
:1017EB0082DA120301752C7F758281120301752C2D
:1017FB00E37582A4120301752CE37582A612030113
:10180B00752CE375822E120301752C807582D5120F
:10181B000301752C227582D9120301752C20758258
:10182B00DB120301752CE375828B120301752C14EB
:10183B0075828D120301752C0275822012030175BE
:10184B0036007537587538067539007582001204E5
:10185B00167533007534237535807530007531205E
:10186B007532027582201203DF7533407534237590
:10187B003580753000753110753202758248120350
:10188B00DF752CE37582AF12030175270075820992
:10189B0012026775820012024175820112024175B4
:1018AB002780758202120267752700758203120268
:1018BB006775273F758208120267752710758210AE
:1018CB0012026775270A7582301202677527007539
:1018DB00820D12026775270075820C12026775273D
:1018EB004B75820A12026775270075820412026714
:1018FB00752700758205120267752700758206121F
:10190B00026712012212043C1205E81206EAC28C8D
:10191B005389F0538E7F758A80758C8FC2A953873C
:10192B003F75985053890F758BD0758DFF438E4043
:10193B00538EDEC2ABD28EC2AC75270375820912F1
:10194B000267D28C7873760020B3031211F8108DD6
:10195B00028015121681787506B6000C0806B600C3
:10196B00070806B60002080610980280DB7444B51F
:07197B0099D675C76080D109
:1020000000F0F8F0040E0E0E0E0E0E0E0E0600007E
:10201000020E0E0E0E0E0E0E0EF4F8F00000000072
:10202000000F1F0F0040E0E0E0E0E0E0E0E0808033
:10203000C0E0E0E0E0E0E0E0400F1F0F0000000043
:102040000000000080808080808080808000000010
:102050000080808080808080808000000000000000
:102060000002030303030303030303030303020246
:10207000030303030303030303030302000000003D
:1020800000F0F8FC000000000000000000F0F8F88C
:10209000060E0E0E0E0E0E0E04F0F8F000000000FC
:1020A000000F1F0F40E0E0E0E0E0E0E0E0CF3F3F66
:1020B0000000000000000000001F3F7F0000000043
:1020C00000FCF8F0000000000000000000F8FEF83E
:1020D000000000000000000000F0F8FC000000001C
:1020E000000F1F0F207070707070707070675F5FEE
:1020F0006070707070707070200F1F0F0000000013
:1021000000000002060E0E0E0E0E0E0E0EE6F8F881
:1021100000000000000000000000000000000000BF
:102120000080C0C0E0E0E0E0E0E0E0E0E0CFBFBF82
:10213000C0E0E0E0E0E0E0E0E0E0C08000000000BF
:1021400000F0F8F0040E0E0E0E0E0E0E0EE6F8F86D
:10215000000000000000000000F8FCFE000000008D
:10216000007F3F0F0000000000000000001F3F3F05
:10217000C0E0E0E0E0E0E0E0400F1F0F0000000002
:1021800000F0F8F0040E0E0E0E0E0E0E0EE6FAFA29
:10219000060E0E0E0E0E0E0E0EF4F8F000000000ED
:1021A000007F3F0F0000000000000000001F3F3FC5
:1021B000C0E0E0E0E0E0E0E0400F1F0F00000000C2
:1021C00000FEFCF80000000000000000000000001D
:1021D00000000000000000000000000000000000FF
:1021E000003F1F2F30383838383838383830202002
:1021F0003038383838383838383830200000000067
:1022000000F0F8F0040E0E0E0E0E0E0E0EE6F8F8AC
:10221000060E0E0E0E0E0E0E0EF4F8F0000000006C
:10222000000F1F0F40E0E0E0E0E0E0E0E0CFBFBFE4
:10223000C0E0E0E0E0E0E0E0400F1F0F0000000041
:1022400000F0F8F0040E0E0E0E0E0E0E0EE6F8F86C
:10225000000000000000000000F0F8FC000000009A
:10226000000F1F0F40E0E0E0E0E0E0E0E0CFBFBFA4
:10227000C0E0E0E0E0E0E0E0400F1F0F0000000001
:10228000000000000000000000000000000000004E
:102290000000F8FCFE00000000000000000000004C
:1022A000000000000000000000000000000000002E
:1022B000000007070300000000000000000000000D
:1022C000000000000000000000000000000000000E
:1022D00000000000000000000000000000000000FE
:1022E00000000000000000000000000000000000EE
:1022F00000000000000000000000000000000000DE
:10230000000000000000000000003828444444445D
:10231000444428B8808040406020203010000000F5
:10232000000000000000000000000C04040602028F
:102330000301010E0A1111111111110A0E00000002
:1023400000E02020F8080888C8E888C8C848F800D5
:10235000000704041F1213111013131110101F0093
:1023600000010307071737777730313233343536BA
:10237000373839414243444546FD18FD18FD18FDE4
:1023800018FD18FD18FD18FD18FD18FD18FD18FDA5
:1023900018FD18FD18FD18FD18FD18FD18FD18FD95
:1023A00018FD18FD18FD18FC18F918F518EF18E8B5
:1023B00018E018D618CB18BE18B018A11890187EBF
:1023C000186A1855183F1827180E18F317D717B999
:1023D000179B177A17591735171117EB16C4169B49
:1023E00016711645161816EA15BA158915561522CE
:1023F00015ED14B6147E1444140914CC138F134F26
:10240000130F13CC1289124412FE11B6116D112252
:1024100011D61089103A10EA0F980F450FF10E9B54
:102420000E440EEB0D910D360DD90C7B0C1B0CBA26
:102430000B570BF40A8E0A280ABF095609EB087FCE
:10244000081108A2073107BF064C06D7056105E948
:10245000047004F6037A03FD027E02FE017C01FA99
:102460000075000000000100010001FF00FF00FEF8
:1024700000FD00FC00FB00FA00F800F700F500F397
:1024800000F100EF00ED00EA00E700E500E200DF08
:1024900000DC00D800D500D100CE00CA00C600C2C2
:1024A00000BE00B900B500B100AC00A700A2009DBD
:1024B00000980093008E00890084007E00790073EC
:1024C000006D00680062005C00560050004A004445
:1024D000003E00380032002C0026001F00190013B7
:1024E000000D0006000000FAFFF3FFEDFFE7FFE13B
:1024F000FFDAFFD4FFCEFFC8FFC2FFBCFFB6FFB0BC
:10250000FFAAFFA4FF9EFF98FF93FF8DFF87FF8226
:10251000FF7CFF77FF72FF6DFF68FF63FF5EFF596F
:10252000FF54FF4FFF4BFF47FF42FF3EFF3AFF368E
:10253000FF32FF2FFF2BFF28FF24FF21FF1EFF1B71
:10254000FF19FF16FF13FF11FF0FFF0DFF0BFF0910
:10255000FF08FF06FF05FF04FF03FF02FF01FF0165
:10256000FF00FF00FF00FF00FF00FF01FF01FF026F
:10257000FF03FF04FF05FF06FF08FF09FF0BFF0D28
:10258000FF0FFF11FF13FF16FF19FF1BFF1EFF2197
:10259000FF24FF28FF2BFF2FFF32FF36FF3AFF3EBD
:1025A000FF42FF47FF4BFF4FFF54FF59FF5EFF63A2
:1025B000FF68FF6DFF72FF77FF7CFF82FF87FF8D53
:1025C000FF93FF98FF9EFFA4FFAAFFB0FFB6FFBCDA
:1025D000FFC2FFC8FFCEFFD4FFDAFFE1FFE7FFED48
:1025E000FFF3FFFAFF000006000D00130019001FA3
:1025F0000026002C00320038003E0044004A005003
:102600000056005C00620068006D00730079007E77
:1026100000840089008E00930098009D00A200A70E
:1026200000AC00B100B500B900BE00C200C600CACF
:1026300000CE00D100D500D800DC00DF00E200E5CC
:1026400000E700EA00ED00EF00F100F300F500F70D
:1026500000F800FA00FB00FC00FD00FE00FF00FF98
:05266000000001000173
:10198200FB7A20E4FCFDFEFFE5822582F582E583F9
:1019920033F583E5F033F5F0EB33FB4017DAE980FA
:1019A20042E5822582F582E58333F583E5F033F55E
:1019B200F0EB33FBEC33FCED33FDEE33FEEF33FFA4
:1019C200EC9508ED9509EE950AEF950B4013EC9511
:1019D20008FCED9509FDEE950AFEEF950BFF43829B
:0519E20001DABEEB225A
:06003500E478FFF6D8FD9F
:100013007900E94400601B7A00902665786D75A02D
:1000230003E493F2A308B8000205A0D9F4DAF27549
:02003300A0FF2C
:1019E70020F71130F6138883A88220F509F6A8831B
:1019F7007583002280FEF280F5F022E5828508F0EB
:101A0700A4C582C0F08509F0A4D0F025F0C5838570
:101A170008F0A42583F58322AAF0FBE5828508F068
:101A2700A4FCADF0E5838508F0A42DFDE435F0FEB8
:101A3700E5828509F0A42DFDE5F03EFEE433FFEADB
:101A47008508F0A42EFEE5F03FFFE5838509F0A4A5
:101A57002EFEE5F03FFFE582850AF0A42EFEE5F0B5
:101A67003FFFEB8508F0A42FFFEA8509F0A42FFFBD
:101A7700E583850AF0A42FFFE582850BF0A42F8E5E
:061A8700F08D838C822229
:10003B007800E84400600A790175A000E4F309D860
:10004B00FC786CE84403600C7904900001E4F0A3A5
:04005B00D8FCD9FAFA
:101A8D007A10E4FBFCE58225E0F582E58333F583EE
:101A9D00EB33FBEC33FCEB9508F5F0EC95094006C8
:101AAD00FCABF0438201DADD22FBC2D530E715D263
:101ABD00D5E4C39582F582E49583F583E495F0F53D
:101ACD00F0E49BFBE50B30E717B2D5E4C39508F5C1
:101ADD0008E49509F509E4950AF50AE4950BF50B6B
:101AED00EB12198230D513FBE4C39582F582E49590
:0B1AFD0083F583E495F0F5F0E49B22F4
:0D0006007581B0121B5CE5826003020003EF
:101B080020F71430F6148883A88220F507E6A88306
:101B180075830022E280F7E49322E022C2D5E583B0
:101B280030E70DD2D5E4C39582F582E49583F58339
:101B3800E50930E70DB2D5E4C39508F508E4950941
:101B4800F509121A8D30D50BE4C39582F582E49518
:081B580083F58322758200224F
:00000001FF
